{
  "contractName": "Evidence",
  "abi": [
    {
      "constant": false,
      "inputs": [],
      "name": "Notary",
      "outputs": [],
      "payable": false,
      "stateMutability": "nonpayable",
      "type": "function"
    },
    {
      "constant": false,
      "inputs": [
        {
          "internalType": "bytes32",
          "name": "hash",
          "type": "bytes32"
        }
      ],
      "name": "addDocHash",
      "outputs": [],
      "payable": false,
      "stateMutability": "nonpayable",
      "type": "function"
    },
    {
      "constant": false,
      "inputs": [
        {
          "internalType": "bytes32",
          "name": "hash",
          "type": "bytes32"
        }
      ],
      "name": "findDocHash",
      "outputs": [
        {
          "internalType": "uint256",
          "name": "",
          "type": "uint256"
        },
        {
          "internalType": "uint256",
          "name": "",
          "type": "uint256"
        }
      ],
      "payable": false,
      "stateMutability": "nonpayable",
      "type": "function"
    }
  ],
  "bytecode": "0x608060405234801561001057600080fd5b5061019d806100206000396000f3fe608060405234801561001057600080fd5b50600436106100415760003560e01c8063133a48f3146100465780634cf00d3f14610074578063e6885aad146100bd575b600080fd5b6100726004803603602081101561005c57600080fd5b81019080803590602001909291905050506100c7565b005b6100a06004803603602081101561008a57600080fd5b8101908080359060200190929190505050610114565b604051808381526020018281526020019250505060405180910390f35b6100c561014c565b005b6100cf61014e565b60405180604001604052804281526020014381525090508060008084815260200190815260200160002060008201518160000155602082015181600101559050505050565b600080600080848152602001908152602001600020600001546000808581526020019081526020016000206001015491509150915091565b565b60405180604001604052806000815260200160008152509056fea265627a7a72315820766ff1f3503aecb7a4fbd7b5abe143e2e07692640dfd713d08ba5cca2248dccd64736f6c63430005100032",
  "source": "// SPDX-License-Identifier: MIT\npragma solidity >=0.4.22 <0.9.0;\n\ncontract Evidence {\n  struct Record {\n    uint mineTime;\n    uint blockNumber;\n  }\nmapping (bytes32 => Record) private docHashes;\nfunction Notary() public {\n    // constructor\n  }\n\n// Function to add evidence document \nfunction addDocHash (bytes32 hash) public {\n    Record memory newRecord = Record(block.timestamp, block.number);\n    docHashes[hash] = newRecord;\n  }\n// Function to verify evidence document \nfunction findDocHash (bytes32 hash) public returns (uint, uint) {\n    return (docHashes[hash].mineTime, docHashes[hash].blockNumber);\n  }\n\n}\n",
  "sourcePath": "D:\\PROJECT\\doc-verification\\contracts\\Evidence.sol",
  "compiler": {
    "name": "solc",
    "version": "0.5.16+commit.9c3226ce.Emscripten.clang"
  },
  "schemaVersion": "3.4.3",
  "updatedAt": "2021-10-09T14:43:09.308Z",
  "devdoc": {
    "methods": {}
  },
  "userdoc": {
    "methods": {}
  }
}